S022000046696E616C2D536E616B655F73746F72795F616E645F67616D652E73726563CE
S11300004BC1000067C1000065C1000063C100006E
S113001061C100005FC100005DC100005BC1000060
S113002059C1000057C1000055C1000053C1000070
S113003051C100000C94AB084DC100004BC100003D
S113004049C1000047C1000045C1000043C1000090
S113005041C100003FC100003DC100003BC10000A0
S113006039C1000037C1000035C1000033C10000B0
S113007031C100002FC100002DC100002BC10000C0
S113008029C1000027C1000025C100002E06340646
S11300903C065F0681068D06090722073407CF0751
S11300A0260833083B08240A2C0A3C0A500A570A3B
S11300B0EC0AE00AF80AFF0A000000000000005FF2
S11300C000000007000700147F147F14242A7F2AED
S11300D012231308646236495522500005030000B8
S11300E0001C2241000041221C0014083E08140890
S11300F0083E08080050300000080808080800609E
S113010060000020100804023E5149453E00427F31
S1130110400042615149462141454B311814127F38
S11301201027454545393C4A4949300171090503C1
S11301303649494936064949291E00363600000029
S113014056360000081422410014141414140041FB
S11301502214080201510906324979413E7E1111E7
S1130160117E7F494949363E414141227F41412226
S11301701C7F494949417F090909013E4149497A9E
S11301807F0808087F00417F41002040413F017FF4
S1130190081422417F404040407F020C027F7F04CC
S11301A008107F3E4141413E7F090909063E415105
S11301B0215E7F09192946464949493101017F01D8
S11301C0013F4040403F1F2040201F3F4038403FF8
S11301D06314081463070870080761514945430014
S11301E07F41410002040810200041417F000402C5
S11301F001020440404040400001020400205454E5
S113020054787F484444383844444420384444486B
S11302107F3854545418087E0901020C5252523E3D
S11302207F0804047800447D40002040443D007F62
S11302301028440000417F40007C041804787C08A6
S113024004047838444444387C14141408081414FE
S1130250187C7C080404084854545420043F444047
S1130260203C4040207C1C2040201C3C4030403C32
S113027044281028440C5050503C4464544C4400CE
S11302800836410000007F000000413608001008D5
S1130290081008000000000011241FBECFEFD0E4B6
S11302A0DEBFCDBF13E0A0E0B1E0E6E4F6E100E09C
S11302B00BBF02C007900D92AE38B107D9F726E004
S11302C0AEE8B3E001C01D92A434B207E1F7A9D7A8
S11302D00C94210B95CE2998662311F02B9A15C006
S11302E02B9813C0AC01022E02C0559547950A9471
S11302F0E2F740FF02C02C9A01C02C982D9A2D9849
S11303002150310978F7299A089527E030E090E0E8
S1130310E9CF60E0E0CF0895CF93DF93219A229A4A
S1130320239A249A259A2A9A299A83EC99E0019788
S1130330F1F700C000002A988BE594E40197F1F7E7
S113034000C000002A9A299881E2E3DF83E1E1DF1B
S113035086E0DFDF82ECDDDF80E2DBDF89E0D9DF0E
S113036080E8D7DF80E4D5DFC8EFD1E061E080E04A
S1130370B2DF2197D9F788E0CCDF8CE0CADFDF91C8
S1130380CF91089580E8C5DF80E4C3DF1092F305C0
S11303901092F405EBEFF3E083EF95E01192E81788
S11303A0F907E1F70895262F26952695269590E0DE
S11303B034E5239F800D911D1124442379F0FC0121
S11303C0E550FC4F677081E090E002C0880F991FF0
S11303D06A95E2F79081892B80830895FC01E550AA
S11303E0FC4F677081E090E002C0880F991F6A9506
S11303F0E2F7809590818923808308955F926F92BC
S11304007F928F929F92AF92BF92CF92DF92EF92A0
S1130410FF920F931F93CF93DF93562E262F30E036
S11304204901880C991C880C991C820E931E18147F
S113043019040CF05BC08901000F111F000F111F7C
S1130440000F111F021B130B612CA82EB12CC50128
S113045080975C01AA0CBB1CAA0CBB1CA80EB91E7D
S11304600F2EF4EFCF2EF5E0DF2EF02D0F2EF3EF4D
S1130470EF2EF5E0FF2EF02D2BC0FE01249130E08D
S1130480872D652D0E940C0B02C0359527958A9502
S1130490E2F720FF09C0F6016081670DF701808152
S11304A041E0860D80DF08C0F6016081670DF70129
S11304B0808140E0860D77DF7394872D90E080176C
S11304C09107DCF26394862D90E08815990574F405
S11304D010161106BCF7862D652D0E940C0BE50144
S11304E0C80FD11DC854DF4F712CC7CF8091F305BD
S11304F091E0980F852D880F880F850D890F84351D
S113050018F48093F3050EC01092F305E4EFF5E0C0
S1130510808191E0980F852D880F880F880F8519A9
S1130520890F80838091F405803320F01092F305C5
S11305301092F405DF91CF911F910F91FF90EF90EE
S1130540DF90CF90BF90AF909F908F907F906F90EF
S11305505F9008951F93CF93DF93EC0188818823E4
S113056039F0162F2196612F49DF89918111FBCF34
S1130570DF91CF911F9108950F931F93CF93DF9332
S113058080E8C7DE80E4C5DECBEFD3E003EF15E0FF
S113059061E08991A0DEC017D107D1F7DF91CF9137
S11305A01F910F910895181619065CF00895000024
S11305B021503109E1F74F5F5F4F8417950719F414
S11305C0089540E050E027E033E0F1CF10988BB974
S11305D0119A0000119882E090E0E5CF089581E03F
S11305E0F5CF0895813118F48158F0CF08958155DD
S11305F0EDCF089584E690E0D6DF88E3E7DF86E078
S1130600E5DF8CE0E3DF81E0E1DF8AE090E0CBCF5F
S11306100895109A8BB9119A0000119881E090E026
S1130620C2CF08950F931F93CF93DF93182FEB013D
S1130630D6DF8881882351F001E0010F812FD2DFBA
S11306408991E7DF102F88818111F6CFDF91CF9157
S11306501F910F910895CF93DF93EBE1F6E084E1CE
S11306608083CEE1C1837EE472838AE1838386E35F
S1130670848392E09583B4E0B68383E28783908792
S113068099E0918796E19287A9E1A3878487D8E1CD
S1130690D58785E28687878760E5608B58E0518B34
S11306A042E2428B35E1338B2FE2248B2BE0258B06
S11306B0D68B978BD5E0D08FC18FB28F238FA48F29
S11306C0958FA7E2A68F278F70A391A382A383A3FC
S11306D064A355A346A337A3DF91CF9108950F9345
S11306E01F93CF93DF93E3E9F3E08AE080838EE105
S11306F0818399E09283838398E09483858397E050
S11307009683878396E09087818795E09287838795
S113071094E09487858793E096878787908B8DE113
S1130720818B928B8CE1838B948B8BE1858BEF0196
S113073009EA13E041E06981888135DE2296C01719
S1130740D107C1F781E0809343068BE080931906BB
S113075010921A06EBE1F6E041E06181808123DE2C
S1130760DF91CF911F910F910895E0911A06F0E067
S1130770EE0FFF1FE55EF94F41E06181808113CEEA
S11307800895613091F028F06230D9F0633029F196
S113079030C0A0919403A11104C050919303AFE21F
S11307A02AC050919303A15026C05091930353350E
S11307B021F4A091940350E01EC05F5FA0919403C4
S11307C01AC0A0919403AF3221F450919303A0E096
S11307D012C050919303AF5F0EC050919303511117
S11307E004C0A091940353E506C05150A091940312
S11307F002C0A0E050E020911A0630E0F901EE0FAB
S1130800FF1FE55EF94F9081591749F0682F70E09A
S113081061507109633071055CF480E00895220F22
S1130820331FF901E55EF94F9181A913EFCF1BC086
S113083022E030E092E0F901EE0FFF1FED56FC4F8D
S11308404081541308C0220F331FF901ED56FC4FA9
S11308508181A81751F09F5F292F30E026173707B1
S113086054F380E0089581E0089582E00895CF93E1
S1130870DF93C82FD62F85DFD13009F475C038F047
S1130880D23009F4DCC0D33009F444C1AFC18111C2
S113089032C0EC2FF0E0EE0FFF1FEF56FC4F40E0AC
S11308A06181808180DD8FEF8C0F91F0E82FF0E083
S11308B0DF01AA0FBB1FAF56BC4F9C91EE0FFF1F69
S11308C0ED56FC4F908311969C919183815071F762
S11308D080919403811104C08FE28093940303C038
S11308E0815080939403E3E9F3E041E061818081E6
S11308F05ADD8C2F8CC1813091F5C93109F478C14E
S1130900CC2399F08C2FE82FF0E0DF01AA0FBB1F56
S1130910AF56BC4F9C91EE0FFF1FED56FC4F9083DA
S113092011969C919183815071F780919403811168
S113093004C08FE28093940303C081508093940396
S1130940E3E9F3E041E0618180812DDD80911A06C5
S11309508F5F80931A0609DF81E08C0F58C18230C3
S113096009F048C188EC53C1811131C0EC2FF0E08B
S1130970EE0FFF1FEF56FC4F40E06181808113DDD5
S11309808FEF8C0F91F0E82FF0E0DF01AA0FBB1F6F
S1130990AF56BC4F9C91EE0FFF1FED56FC4F90835A
S11309A011969C919183815071F7809193038335C3
S11309B019F41092930303C08F5F80939303E3E9C8
S11309C0F3E041E061818081EEDC8C2F20C1813035
S11309D089F5C93109F410C1CC2399F08C2FE82F83
S11309E0F0E0DF01AA0FBB1FAF56BC4F9C91EE0F86
S11309F0FF1FED56FC4F908311969C91918381507B
S1130A0071F780919303833519F41092930303C013
S1130A108F5F80939303E3E9F3E041E06181808198
S1130A20C2DC80911A068F5F80931A069EDE81E0F5
S1130A308C0FEDC0823009F0E1C088ECE8C0811170
S1130A4031C0EC2FF0E0EE0FFF1FEF56FC4F40E0FB
S1130A5061818081A8DC8FEF8C0F91F0E82FF0E0AA
S1130A60DF01AA0FBB1FAF56BC4F9C91EE0FFF1FB7
S1130A70ED56FC4F908311969C919183815071F7B0
S1130A80809194038F3219F41092940303C08F5F02
S1130A9080939403E3E9F3E041E06181808183DCA6
S1130AA08C2FB5C0813089F5C93109F4A9C0CC2394
S1130AB099F08C2FE82FF0E0DF01AA0FBB1FAF568F
S1130AC0BC4F9C91EE0FFF1FED56FC4F9083119687
S1130AD09C919183815071F7809194038F3219F422
S1130AE01092940303C08F5F80939403E3E9F3E0CF
S1130AF041E06181808157DC80911A068F5F809389
S1130B001A0633DE81E08C0F82C0823009F07AC08D
S1130B1088EC7DC0811132C0EC2FF0E0EE0FFF1F96
S1130B20EF56FC4F40E0618180813DDC8FEF8C0FFC
S1130B3091F0E82FF0E0DF01AA0FBB1FAF56BC4FC6
S1130B409C91EE0FFF1FED56FC4F908311969C91E4
S1130B509183815071F780919303811104C083E5DF
S1130B608093930303C0815080939303E3E9F3E0FC
S1130B7041E06181808117DC8C2F49C0813091F57F
S1130B80C93109F441C0CC2399F08C2FE82FF0E04F
S1130B90DF01AA0FBB1FAF56BC4F9C91EE0FFF1F86
S1130BA0ED56FC4F908311969C919183815071F77F
S1130BB080919303811104C083E58093930303C060
S1130BC0815080939303E3E9F3E041E06181808104
S1130BD0EADB80911A068F5F80931A06C6DD81E0F6
S1130BE08C0F15C0823091F488EC11C08FEF0FC0C8
S1130BF084E60DC08FEF0BC084E609C08FEF07C0F9
S1130C0084E605C08FEF03C084E601C08FEFDF9157
S1130C10CF9108950F931F93CF93DF938C01862F69
S1130C20880F880F880F805CD1DCE801085F1F4FB4
S1130C308991EFDCC017D107D9F7DF91CF911F91CC
S1130C400F9108951F93CF93DF93EC018D3091059D
S1130C5008F019C2FC01EA5BFF4FEAC4C0DC88E873
S1130C60B5DCC1E0D0E00FC28091FA03882309F417
S1130C700AC2C2E0D0E007C26DE671E081E0D2DCD6
S1130C8061E085E691E0C6DF62E08DE591E0C2DFD8
S1130C9063E085E591E0BEDF64E08DE491E0BADFD6
S1130CA065E085E491E0B6DF66E08DE191E0B2DFD6
S1130CB067E085E191E0AEDFC3E0D0E0E4C18FDC22
S1130CC06CE771E081E0AEDC80EC80DC85EC7EDCFE
S1130CD083E09FDC89EC7ADC83E09BDC80EC76DCCF
S1130CE081E097DC82EC72DC85E093DC84E091DCCB
S1130CF049DB61E089E891E02DDC3EDCC4E0D0E032
S1130D00C2C180E863DCC0E180E283DCC150E1F76A
S1130D1010928E03C5E0D0E0B6C110918E0310315D
S1130D2008F072C080EC810F51DC1F3019F480E2AE
S1130D3070DC5BC01F30F8F4143011F0183041F44B
S1130D4080E267DC81E8810F41DC82E062DC13C071
S1130D50153011F0193059F480E8810F37DC80E246
S1130D6058DC81EC810F32DC81E053DC04C080E28A
S1130D7050DC81E04EDC1C3039F48EEC27DC80E260
S1130D8048DC85E046DC3AC01D3029F48FEC1EDCDB
S1130D9080E23FDC33C0812F8B7F813069F482ECA9
S1130DA0810F14DC80E235DC80E233DC84E8810FDF
S1130DB00DDC86E02EDC22C0823031F483E8810F22
S1130DC005DC87E026DC1AC0833079F482E8810FE1
S1130DD0FDDB80E21EDC80E21CDC83EC810FF6DBB1
S1130DE085E017DC84E015DC09C082EC810FEEDBC2
S1130DF080E20FDC85E00DDC84E00BDC80918E0367
S1130E008F5F80938E033FC110928E03C6E0D0E0C3
S1130E103AC166EC71E081E005DC66E08DE391E0C7
S1130E20F9DE67E085E391E0F5DE60E08DE291E0D4
S1130E30F1DEA8DA61E082ED91E08CDB9DDBC7E0B6
S1130E40D0E021C180E8C2DBC0E180E2E2DBC15036
S1130E50E1F785ECBBDB83E0DCDB89ECB7DB83E02B
S1130E60D8DBC8E0D0E00FC110918E03153108F033
S1130E707FC0163011F01A3059F48FE8811BA6DBBD
S1130E8082E0C7DB80ED811BA1DB80E2C2DB28C0EE
S1130E90173011F01B3059F48FEC811B97DB81E084
S1130EA0B8DB80E9811B92DB80E2B3DB19C011114E
S1130EB005C08FEC8BDB81E0ACDB56C0103129F42C
S1130EC080EC84DB80E2A5DB44C080EF810F8430BA
S1130ED038F08FEC811B7ADB81E09BDB80E299DBCD
S1130EE0123008F441C0123029F48FEC6FDB86E035
S1130EF090DB3AC0133039F48EEC68DB86E089DB92
S1130F0087E087DB31C0143049F48DEC5FDB86E089
S1130F1080DB87E07EDB80E07CDB26C0123149F495
S1130F2080EC54DB87E075DB80E073DB80E271DB0F
S1130F301BC0133139F480EC49DB80E06ADB80E2CA
S1130F4068DB12C0143129F480EC40DB80E261DB01
S1130F500BC081ED811B3ADB86E05BDB87E059DB6C
S1130F6080E057DB80E255DB1F5F10938E038BC05C
S1130F7010928E0367E085E291E04CDE61E08DE043
S1130F8091E048DE62E085E091E044DEFBD961E077
S1130F9086E092E0DFDAF0DAC9E0D0E074C0809154
S1130FA08E03853008F44CC0853029F480EC0EDBC8
S1130FB080E02FDB45C0863039F480EC07DB87E026
S1130FC028DB80E026DB3CC0873049F480ECFEDA85
S1130FD086E01FDB87E01DDB80E01BDB31C088304F
S1130FE059F480ECF3DA81E014DB86E012DB87E06D
S1130FF010DB80E00EDB24C0893069F480ECE6DA93
S113100082E007DB81E005DB86E003DB87E001DBD0
S113101080E0FFDA15C0803129F410928E03CAE013
S1131020D0E00EC08A54D2DA80E2F3DA82E0F1DA58
S113103081E0EFDA86E0EDDA87E0EBDA80E0E9DA06
S113104080918E038F5F80938E031DC062E572E0F2
S113105081E0E8DA97D961E08BE692E07BDA8CDA1A
S1131060CBE0D0E010C004990EC081E08093F90376
S1131070CCE0D0E008C08091FA03811104C0109242
S1131080F903C1E0D0E0CE01DF91CF911F91089523
S11310908BE0809381008DE790E0909389008093AA
S11310A0880082E080936F00109285001092840083
S11310B08091010190910201A0910301B09104017A
S11310C080938F0390939003A0939103B093920322
S11310D08FB780688FBF0895EF92FF920F931F938D
S11310E0CF93DF93C5EFD5E00F2EF9E1EF2EF6E0B5
S11310F0FF2EF02D8E014E815F81688579858A816E
S11311009B81AC81BD81481759076A077B0758F05A
S1131110EA85FB85888199810995998388831E8254
S11311201F8218861986F80186819781A085B1856A
S113113088539F4FAF4FBF4F86839783A087B18754
S11311402C96CE15DF05B1F6DF91CF911F910F914B
S1131150FF90EF9008951F920F920FB60F921124F3
S11311600BB60F922F933F934F935F936F937F939D
S11311708F939F93AF93BF93EF93FF9380918F03CC
S113118090919003A0919103B09192030197A109CA
S1131190B10980938F0390939003A0939103B0932C
S11311A09203892B8A2B8B2B89F496DF8091010182
S11311B090910201A0910301B091040180938F03E7
S11311C090939003A0939103B0939203FF91EF91B6
S11311D0BF91AF919F918F917F916F915F914F914B
S11311E03F912F910F900BBE0F900FBE0F901F9049
S11311F01895609301017093020180930301909309
S1131200040160938F0370939003809391039093F0
S11312109203089580E480937C0087E880937A00A9
S1131220089583E081B98CEF82B980EF87B98FE0AC
S113123088B98FEF8AB91BB8EDDFDCD9D0D988E83B
S1131240C5D9E5EFF5E01182108288EC90E0A0E0CA
S1131250B0E082839383A483B58386839783A08736
S1131260B18728E13AE0338722871586148648EE51
S113127053E060E070E046875787608B718B428B48
S1131280538B648B758B22E236E0378B268B118E61
S1131290108E828F938FA48FB58F868F978FA0A384
S11312A0B1A387EA99E093A382A368EC70E080E09D
S11312B090E09FDFEDDEFFCFECE7F0E09081987FD8
S11312C08770892B8083EAE7F0E0808180648083E3
S11312D0808186FDFDCF80917800909179000895FA
S11312E0CF93DF9382E0E8DFEC0183E0E5DFCD3BE1
S11312F022E0D20748F08D3B22E09207D0F48C32F2
S11313009140C8F082E020C0CA3FD10548F48D3B2B
S113131022E0920790F48C32914088F085E014C06A
S11313208D3B22E0920768F48C32914060F088E0B3
S11313300BC080E009C081E007C083E005C084E001
S113134003C086E001C087E0DF91CF910895CF9379
S1131350DF93EC018230910509F12CF4009761F0E0
S1131360019799F061C08430910509F440C0DCF024
S1131370059709F445C058C06DEA72E081E052D97E
S113138010920001C1E0D0E04FC004994DC069EB58
S113139072E081E047D9C2E0D0E046C0049B44C07B
S11313A0C3E0D0E041C09CDF8650823028F48091B5
S11313B000018F5F80930001809100018F5F80FFA7
S11313C00BC080EC03D980E224D980E8FFD88EE7F3
S11313D020D9049B1EC028C080E8F8D880E219D91F
S11313E080ECF4D88EE715D9049B19C01DC08091F8
S11313F0F9038823C9F01092FA03C0E0D0E014C0C6
S11314008091F703882381F01092F803C0E0D0E0C4
S11314100BC081E08093FA03C4E0D0E005C081E012
S11314208093F803C5E0D0E0CE01DF91CF91089519
S11314301F93CF93DF93EC018930910508F0E7C047
S1131440FC01ED5AFF4FF4C00E948C010E94C201BE
S1131450E1DEC1E0D0E0DBC08091F803882309F429
S1131460D6C060ED72E081E0DDD888ECAFD88EE5BF
S1131470D0D8C2E0D0E0CBC00E94C20161E087EEC8
S113148092E068D81092F3058AE08093F40563E053
S11314908EEE92E05FD870D8DED8C3E0D0E0B7C05B
S11314A00E94C2011CD968D8C4E0D0E0B0C018DFE3
S11314B0823041F480914306833001F181E08093CE
S11314C043061CC0853041F4809143068130B1F05D
S11314D083E08093430612C0863039F4809143063A
S11314E0823061F01092430609C0873039F480914C
S11314F04306882319F082E08093430660914306F3
S113150080911906B4D9182F809119068117A8F46F
S113151064EF72E081E086D8153130F480EC56D85F
S113152085E2810F76D809C01F3138F480EC4ED89B
S113153081E36FD88BE1810F6CD81436D1F480919C
S11315401906853148F480EC41D8809119068B5DE9
S113155060D8C6E0D0E031C08F3150F580EC36D889
S113156081E357D880911906845E53D8C6E0D0E051
S113157024C0183CD1F480911906853148F480ECDC
S113158025D8809119068B5D44D8C5E0D0E015C0FC
S11315908F3188F480EC1AD881E33BD88091190606
S11315A0855E37D8C5E0D0E008C01093190605C0A1
S11315B0C6E0D0E002C0C5E0D0E00E94BC0227C073
S11315C00E94C20161E085E093E00E94AA020E94A9
S11315D0BC02C7E0D0E01BC00E94C20161E088E504
S11315E093E00E94AA020E94BC02C7E0D0E00FC0B0
S11315F0049905C081E08093F703C8E0D0E08091AE
S1131600F803811104C01092F703C1E0D0E0CE01C9
S1131610DF91CF911F910895991B79E004C0991F20
S1131620961708F0961B881F7A95C9F78095089538
S1131630EE0FFF1F0024001C0BBE0790F691E02D57
S10916400994F894FFCFA9
S1131646010100000001020408080B0B0B1008043A
S11316561A1A020202000006020202020300000C29
S113166608080808180000000E1F1F1F1F000000AE
S11316760000101C1E00000000001F1F1F1C1C0E73
S11316860707030303000000000000000700000032
S1131696000001021C0000000000040E1F0E0E04D0
S11316A6150E040A110E0E040E15150A1120536E9A
S11316B6616B6527732073746F72790020436174BC
S11316C6636820736E616B65004C6974746C652085
S11316D6736E616B65202069732073636172656440
S11316E62C2020202072756E6E696E6720746F2020
S11316F66974736D6F7468657220666F722020203A
S11317062068656C7000204D6F6D2C2068656C70C8
S113171621004D6F7468657220736E616B652020BD
S1131726697320616E6772792C20202020206368FB
S11317366173696E67206261636B2020746865203B
S113174668756D616E004D6F7468657220736E61A5
S11317566B652020636174636820616E6420656133
S113176674207468652068756D616E2020202020C1
S11317766265666F72652068652072756E206261A7
S1131786636B20746F20686973202020686F7573FB
S11317966500492077616E7420746F206765742034
S11317A620207374726F6E67657200416674657289
S11317B6207761746368696E6720616C6C2C206C99
S11317C66974746C652020736E616B652077697328
S11317D66820746F20676574206173207374726F58
S11317E66E67206173206D6F746865720073656C33
S11317F6656374206D6F646500202053746F72797D
S1131806202020202020202020202067616D6500D4
S11318164C6F6F6B206174206F7468657220202092
S113182673637265656E004C4556454C31005245EE
S11318364144590043757272656E742073636F7206
S1131846653A202000594F552057494E2020202024
S1131856202020427574206E6F7720736E616B654D
S1131866206E6565647320746F20646F2020207376
S11318766F6D65206578657263697365206265635B
S11318866175736520656174696E6720746F6F2076
S11318966D7563682E2E2E00594F55204C4F5345B7
S11318A6202020202020536E616B652773206472EC
S11318B665616D20646964206E6F7420636F6D6565
S11118C62020747275652E2E2E2E2E2E0000FC
S9030000FC
